S00F0000536573696F6E5F342E6D6F746E
S10700006E19FFFF73
S1130004F018F018F018F018F018F018F018F018A8
S1130014F018F018F018F018F018F018F018F01898
S1130024F018F018F018F018720FF018F018F0180F
S1130034F018F018F018F018F018F018F018F01878
S1130044F018F018F018F018F0188508CD08100905
S1130054F018F018F018F018F018F018F018F01858
S1130064F018F018F018F018F018F018F018F01848
S10F0074F018F018F018F018F018F0184C
S10700C0EFFFF8044E
S10D00C4000000000000000000002E
S11300D80E1C070E1C0702FF040E151F0E1515062D
S10500E804000E
S11300EA8F1BCF9DF04AF00D61F3EC1103008F1BB7
S11300FACF9DF0CDF100ADF044060061F8EC4E025C
S113010A00ADF044060071FF61F3EC660100ADF046
S113011A44020061F8ECEE0100ADF044020071FF04
S113012A61F3EC4A0100ADF044000061F8ECC1014E
S113013A00ADF044010061F8ECDA0100EC48030078
S113014AADF044040061F8EC1E0200ADF044040072
S113015A71FF61F3EC320200EC0A0200ADF0440ACA
S113016A0061F8ECB00200ADF0440A0071FF61F3DB
S113017AEC9A0100ADF044080061F8EC760200AD97
S113018AF044080071FF61F3EC970200EC6202008C
S113019AADF0440C0061F8ECE80200ADF0440C0048
S11301AA71FF61D8ECC90200ADF0440D0061F8ECAE
S11301BAFC0200EC4803008F03CF9DF09F24CF8FED
S11301CA00CF9DF09F23CF51069F12CFEC0D030061
S11301DA8F04CF9DF09F24CF8F01CF9DF09F23CF13
S11301EAEC0D0300F524CF8F04CF9DF09F23CF8F0E
S11301FA01CF9DF09F22CF51059F12CFEC0D030032
S113020A8F03CF9DF09F23CF8F00CF9DF09F22CFE6
S113021AEC0D03008F05CF9DF09F23CF8F02CF9D56
S113022AF09F22CFEC0D0300F523CF8F05CF9DF06D
S113023A9F22CF8F02CF9DF09F21CF51049F12CFCF
S113024AEC0D03008F03CF9DF09F22CF8F00CF9D2B
S113025AF09F21CFEC0D03008F04CF9DF09F22CF96
S113026A8F01CF9DF09F21CFEC0D0300F522CF8F94
S113027A04CF9DF09F21CF8F01CF9DF09F20CF51B6
S113028A079F24CF51039F12CFEC0D03008F03CF96
S113029A9DF09F21CF8F00CF9DF09F20CF510E9FBD
S11302AA24CFEC0D03008F05CF9DF09F21CF8F0241
S11302BACF9DF09F20CF511C9F24CFEC0D0300F556
S11302CA21CF8F05CF9DF09F20CF8F02CF9DF09F26
S11302DA1FCFF524CF51029F12CFEC0D03008F03D9
S11302EACF9DF09F20CF8F00CF9DF09F1FCFEC0DA5
S11302FA03008F04CF9DF09F20CF8F01CF9DF09FE5
S113030A1FCF00EC480300C9F064FFADF0BDF2DA78
S113031AF2301FBE780000FCD00E0051159F1ECF8C
S113032A51159F1FCF51109F20CF511F9F21CF518D
S113033A159F22CF510E9F24CF51049F23CFD7C993
S113034AF0A0FFADF0BDF2DAF2F1480000C9F0A165
S113035AFFADF0BDF4FAF48B9DF26AF280ADF0DAE7
S113036AF48DF2480000C9F0A4FFADF0BDF4FAF42C
S113037A8B9DF25AF2EFADF0DAF48DF2480000C91F
S113038AF0A1FFADF0BDF4FAF48B9DF26AF240AD30
S113039AF0DAF48DF2480000C9F0F300ADF0BDF2D2
S11303AADAF25110480000C9F0A4FFADF0BDF4FA26
S11303BAF48B9DF25AF2BFADF0DAF48DF2480000E4
S11303CAC9F0A1FFADF0BDF4FAF48B9DF25AF2FE26
S11303DAADF0DAF48DF2480000D72002C9F0A8FF84
S11303EAADF0BDF2FAF28B9DF098011002D7C9F074
S11303FAE4FFADF0BDF4FAF48B9DF26AF204ADF0B9
S113040ADAF48DF2480000C9F0E0FFADF0BDF4FA69
S113041AF48B9DF25AF2FBADF0DAF48DF248000047
S113042AC9F0E4FFADF0BDF4FAF48B9DF26AF20868
S113043AADF0DAF48DF2480000C9F0E0FFADF0BD8A
S113044AF4FAF48B9DF25AF2F7ADF0DAF48DF2482D
S113045A0000C9F0E4FFADF0BDF4FAF48B9DF26A32
S113046AF210ADF0DAF48DF2480000C9F0E0FFAD05
S113047AF0BDF4FAF48B9DF25AF2EFADF0DAF48D92
S113048AF2480000C9F0E4FFADF0BDF4FAF48B9D24
S113049AF26AF220ADF0DAF48DF2480000C9F0E015
S11304AAFFADF0BDF4FAF48B9DF25AF2DFADF0DA47
S11304BAF48DF2480000C9F0E4FFADF0BDF4FAF49B
S11304CA8B9DF26AF240ADF0DAF48DF2480000C96D
S11304DAF0E0FFADF0BDF4FAF48B9DF25AF2BFAD31
S11304EAF0DAF48DF2480000C9F0E4FFADF0BDF48F
S11304FAFAF48B9DF26AF280ADF0DAF48DF24800D8
S113050A00C9F0E0FFADF0BDF4FAF48B9DF25AF2A3
S113051A7FADF0DAF48DF2480000C9F0D4FFADF0F3
S113052ABDF4FAF48B9DF26AF208ADF0DAF48DF2B6
S113053A480000C9F0D0FFADF0BDF4FAF48B9DF287
S113054A5AF2F7ADF0DAF48DF2480000C9F0D4FF9C
S113055AADF0BDF4FAF48B9DF26AF210ADF0DAF460
S113056A8DF2480000C9F0D0FFADF0BDF4FAF48B67
S113057A9DF25AF2EFADF0DAF48DF2480000C9F0B8
S113058AD4FFADF0BDF4FAF48B9DF26AF220ADF01B
S113059ADAF48DF2480000C9F0D0FFADF0BDF4FAE8
S11305AAF48B9DF25AF2DFADF0DAF48DF2480000D2
S11305BAC9F0D4FFADF0BDF4FAF48B9DF26AF240AF
S11305CAADF0DAF48DF2480000C9F0D0FFADF0BD09
S11305DAF4FAF48B9DF25AF2BFADF0DAF48DF248D4
S11305EA0000C9F0D4FFADF0BDF4FAF48B9DF26AB1
S11305FAF280ADF0DAF48DF2480000C9F0D0FFAD14
S113060AF0BDF4FAF48B9DF25AF27FADF0DAF48D70
S113061AF2480000C9F0D5FFADF0BDF4FAF48B9DA1
S113062AF26AF201ADF0DAF48DF2480000C9F0D1B1
S113063AFFADF0BDF4FAF48B9DF25AF2FEADF0DA96
S113064AF48DF2480000C9F0DCFFADF0BDF4FAF411
S113065A8B9DF26AF220ADF0DAF48DF2480000C9FB
S113066AF0D8FFADF0BDF4FAF48B9DF26AF220AD36
S113067AF0DAF48DF2480000C9F0DCFFADF0BDF405
S113068AFAF48B9DF26AF240ADF0DAF48DF2480086
S113069A00C9F0D8FFADF0BDF4FAF48B9DF26AF20A
S11306AA40ADF0DAF48DF2480000C9F0DCFFADF099
S11306BABDF4FAF48B9DF26AF280ADF0DAF48DF2AD
S11306CA480000C9F0D8FFADF0BDF4FAF48B9DF2EE
S11306DA6AF280ADF0DAF48DF2480000C9F03BFF0B
S11306EAADF0BDF2DAF25107480000C9F227FFC99A
S11306FAF027FFADF0BDF4FAF48B9DF06AF010AD6B
S113070AF2BDF4DAF48DF0480000C9F227FFC9F00B
S113071A27FFADF0BDF4FAF48B9DF06AF020ADF238
S113072ABDF4DAF48DF0480000C9F227FFC9F027B6
S113073AFFADF0BDF4FAF48B9DF06AF040ADF2BD62
S113074AF4DAF48DF0480000D7C9F0D0FFADF0BD5B
S113075AF4FAF48B9DF25AF2DFADF0DAF48DF24832
S113076A0000C9F0D4FFADF0BDF4FAF48B9DF25A3F
S113077AF2DFADF0DAF48DF2480000D7C9F0D4FF05
S113078AADF0BDF4FAF48B9DF26AF220ADF0DAF41E
S113079A8DF2480000C9F0D0FFADF0BDF4FAF48B35
S11307AA9DF25AF2DFADF0DAF48DF2480000D7C9AF
S11307BAF0D0FFADF0BDF4FAF48B9DF25AF2BFAD5E
S11307CAF0DAF48DF2480000C9F0D4FFADF0BDF4BC
S11307DAFAF48B9DF25AF2BFADF0DAF48DF24800C6
S11307EA00D7C9F0D4FFADF0BDF4FAF48B9DF26AD8
S11307FAF240ADF0DAF48DF2480000C9F0D0FFAD52
S113080AF0BDF4FAF48B9DF25AF2BFADF0DAF48D2E
S113081AF2480000D7C9F0D0FFADF0BDF4FAF48B6A
S113082A9DF25AF27FADF0DAF48DF2480000C9F075
S113083AD4FFADF0BDF4FAF48B9DF25AF27FADF019
S113084ADAF48DF2480000D7C9F0D4FFADF0BDF454
S113085AFAF48B9DF26AF280ADF0DAF48DF2480074
S113086A00C9F0D0FFADF0BDF4FAF48B9DF25AF250
S113087A7FADF0DAF48DF2480000D761CFC1C3C569
S113088AC761DFC161CF8F06CF9DF0A4F08DF09FC1
S113089A06CF9DF04C0371FF61F3ECB808008F108A
S11308AACF9DF061019DF09F10CFECC20800510466
S11308BA9F06CF51109F10CF61DFC061CFC6C4C25B
S11308CAC061FC61CFC1C3C5C761DFC161CF8F06F7
S11308DACF9DF0B4F08DF09F06CF9DF0D171FF61EA
S11308EAE3ECFF08008F10CF9DF0311A9DF09F10A2
S11308FACFEC050900F506CFE510CF61DFC061CF63
S113090AC6C4C2C061FC61CFC1C3C5C761DFC1C36C
S113091AC5C761CFC9F03BFFADF0BDF2FAF28B9DBA
S113092AF0312A9DF05AF0014AF00161E8EC7509A8
S113093A00FCD00E00C9F03BFFADF0BDF4FAF48B15
S113094A9DF25AF2FBADF0DAF48DF2480000C9F0D8
S113095A3AFFADF0BDF4FAF48B9DF26AF204ADF0FD
S113096ADAF48DF2480000ECAB0900FC210F00C94F
S113097AF03BFFADF0BDF4FAF48B9DF26AF204ADDC
S113098AF0DAF48DF2480000C9F03AFFADF0BDF494
S113099AFAF48B9DF25AF2FBADF0DAF48DF24800C8
S11309AA00E513CF8F07CF9DF0A4F08DF09F07CFFA
S11309BA8F06CF9DF04AF00461E8ECCD090051108E
S11309CA9F25CF8F06CF9DF04AF00361E8ECE0093A
S11309DA0051089F25CF8F06CF9DF04AF00261E8A7
S11309EAECF3090051049F25CF8F06CF9DF04AF0FE
S11309FA0161E8EC060A0051029F25CF8F06CF9DBC
S1130A0AF0D4F061E8EC160A00E525CF61DFC6C42C
S1130A1AC2C061CFC6C4C2C061FCC9F001FFADF057
S1130A2ABDF2DAF2F1480000C9F007FFADF0BDF2F9
S1130A3ADAF2F1480000C9F00FFFADF0BDF2DAF2C4
S1130A4AF1480000C9F03400ADF0BDF2DAF2E14831
S1130A5A0000C9F06100ADF0BDF2DAF251C04800FD
S1130A6A00C9F07600ADF0BDF2DAF2510C4800008C
S1130A7AC9F021FFADF0BDF2DAF251E0480000C935
S1130A8AF027FFADF0BDF2DAF251F8480000C9F0E0
S1130A9A2FFFADF0BDF2DAF25187480000D761EFBB
S1130AAAC1C3C561CF2020C9F0F000ADF0BDF2FA90
S1130ABAF28B981D6C01981CADF0BDF4DAF4881C15
S1130ACA480000C9F0B601ADF0BDF2DAF2F67800DA
S1130ADA00C9F0B401ADF0BDF4DAF4300F0A7800BD
S1130AEA00C9F0E6FFADF0BDF2FAF28B981B6C1068
S1130AFA981AADF0BDF4DAF4881A480000C9F0E295
S1130B0AFFADF0BDF2FAF28B98195CEF9818ADF0CC
S1130B1ABDF4DAF48818480000C9F0E6FFADF0BD68
S1130B2AF2FAF28B98176C209816ADF0BDF4DAF449
S1130B3A8816480000C9F0E2FFADF0BDF2FAF28B64
S1130B4A98155CDF9814ADF0BDF4DAF48814480003
S1130B5A00C9F0E5FFADF0BDF2FAF28B98136C8090
S1130B6A9812ADF0BDF4DAF48812480000C9F0E135
S1130B7AFFADF0BDF2FAF28B98115C7F9810ADF0DC
S1130B8ABDF4DAF48810480000C9F0E6FFADF0BD00
S1130B9AF2FAF28B980F6C40980EADF0BDF4DAF4C9
S1130BAA880E480000C9F0E2FFADF0BDF2FAF28BFC
S1130BBA980D5CBF980CADF0BDF4DAF4880C4800CB
S1130BCA00C9F0E6FFADF0BDF2FAF28B980B6C8027
S1130BDA980AADF0BDF4DAF4880A480000C9F0E2D4
S1130BEAFFADF0BDF2FAF28B98095C7F9808ADF07C
S1130BFABDF4DAF48808480000C9F0E6FFADF0BD98
S1130C0AF2FAF28B98076C049806ADF0BDF4DAF4A4
S1130C1A8806480000C9F0E2FFADF0BDF2FAF28B93
S1130C2A98055CFB9804ADF0BDF4DAF48804480036
S1130C3A00C9F0EEFFADF0BDF2FAF28B98036C1026
S1130C4A9802ADF0BDF4DAF48802480000C9F0EA6B
S1130C5AFFADF0BDF2FAF28B98016C109800ADF07A
S1130C6ABDF4DAF48800480000C9F09001ADF0BD83
S1130C7AF2DAF2F6780000C9F018FFADF0BDF4DA42
S1130C8AF430FF7C78000030B801B81EC9F0B8010E
S1130C9AADF0BDF2FAF2ABBDF08DF05CFE9DEC8DC9
S1130CAAF15CFF9DEDA81EBDF4DAF4ADEC7800000A
S1130CBAC9ECBA01C9F0BA01ADF0BDF2FAF2ABBDA2
S1130CCAF08DF05CFE9DEA8DF15CFF9DEBDAECADF4
S1130CDAEA780000C9F09401ADF0BDF4DAF4F678CC
S1130CEA0000C9F064FFADF0BDF2DAF230FF7C789F
S1130CFA0000C9EABE01C9F0BE01ADF0BDF4FAF4C0
S1130D0AABBDF08DF05CFB9DE88DF15CFF9DE9DAEB
S1130D1AEAADE8780000C9E8BC01C9F0BC01ADF04D
S1130D2ABDF2FAF2ABBDF08DF05CFB9DF68DF15C81
S1130D3AFF9DF7DAE8ADF6780000C9F6B801C9F004
S1130D4AB801ADF0BDF4FAF4ABBDF08DF05CFB9DD7
S1130D5AF48DF15CFF9DF5ADF6BDF0DAF0ADF478F3
S1130D6A0000C9F4BA01C9F0BA01ADF0BDF2FAF251
S1130D7AABBDF08DF06C049DF28DF16C009DF3AD6A
S1130D8AF4BDF0DAF0ADF2780000C9F25100C9F00E
S1130D9A5100ADF0BDF4FAF48B9DF05AF07FADF238
S1130DAABDF4DAF48DF0480000C9F26100C9F061BB
S1130DBA00ADF0BDF4FAF48B9DF05AF07FADF2BDAC
S1130DCAF4DAF48DF0480000C9F201FFC9F001FF1A
S1130DDAADF0BDF4FAF48B9DF05AF07FADF2BDF498
S1130DEADAF48DF0480000C9F221FFC9F021FFAD01
S1130DFAF0BDF4FAF48B9DF05AF07FADF2BDF4DA4B
S1130E0AF48DF0480000102061EFC4C2C061CFD74E
S1130E1AC9F2E2FFADF2BDF0FAF08B9DF45AF4EF99
S1130E2AADF2DAF08DF4480000C9F2E6FFADF2BD86
S1130E3AF0FAF08B9DF45AF4EFADF2DAF08DF4483F
S1130E4A0000C9F4B201C9F2B201ADF2BDF0FAF080
S1130E5AABBDF28DF26C019DF08DF36C009DF1AD8A
S1130E6AF4BDF2DAF2ADF0780000D7C9F4B401C9DE
S1130E7AF2B401ADF2BDF0FAF0ABBDF28DF26C0141
S1130E8A9DF08DF36C009DF1ADF4BDF2DAF2ADF094
S1130E9A780000C9F0E6FFADF0BDF4FAF48B9DF2D8
S1130EAA6AF210ADF0DAF48DF2480000C9F0E2FFFC
S1130EBAADF0BDF4FAF48B9DF25AF2EFADF0DAF428
S1130ECA8DF2480000D7C9F6BA01C9F4BA01ADF4E3
S1130EDABDF0FAF0ABBDF48DF46C049DF28DF56CA3
S1130EEA009DF3ADF6BDF0DAF0ADF2780000C9F476
S1130EFAB201C9F2B201ADF2BDF0FAF0ABBDF28DA6
S1130F0AF26C049DF08DF36C009DF1ADF4BDF2DA40
S1130F1AF2ADF0780000D7C9F6B401C9F4B401AD52
S1130F2AF4BDF0FAF0ABBDF48DF46C049DF28DF5CA
S1130F3A6C009DF3ADF6BDF0DAF0ADF2780000C9AD
S1130F4AF4BA01C9F2BA01ADF2BDF0FAF0ABBDF2DE
S1130F5A8DF25CFB9DF08DF35CFF9DF1ADF4BDF267
S1130F6ADAF2ADF0780000D761CFC1C3C5C761DF3B
S1130F7AC1C3C5C761CF8F19CF9DF0CDF100ADF0C4
S1130F8A44030061F8EC861100ADF044030071FFDC
S1130F9A61F3ECC70F00ADF044010061F8EC761080
S1130FAA00ADF044010071FF61F3ECFE1000ADF0F6
S1130FBA44000061F8ECEE0F00ECA31300ADF0441A
S1130FCA050061F8EC961200ADF044050071FF616A
S1130FDAD8EC0E1200ADF044060061F8EC1E1300C2
S1130FEAECA31300C9F001FFADF0BDF2DAF2F14847
S1130FFA0000C9F00FFFADF0BDF4FAF48B9DF25A6C
S113100AF2F7ADF0DAF48DF24800008F13CF9DF0B9
S113101AD4F061E8EC3A1000C9F001FF8F0ECF9DBD
S113102AF2ADF0BDF4DAF48DF2480000EC59100088
S113103AC9F201FF8F1ECF9DF18F10CF9DF08DF164
S113104A6BF09DF0ADF2BDF4DAF48DF0480000C9FE
S113105AF00FFFADF0BDF4FAF48B9DF26AF220AD05
S113106AF0DAF48DF2480000ECA31300C9F001FF92
S113107AADF0BDF2DAF2F1480000C9F00FFFADF0AD
S113108ABDF4FAF48B9DF25AF2DFADF0DAF48DF284
S113109A4800008F13CF9DF0D4F061E8ECC2100031
S11310AAC9F001FF8F0DCF9DF2ADF0BDF4DAF48DD6
S11310BAF2480000ECE11000C9F201FF8F1FCF9D36
S11310CAF18F28CF9DF08DF16BF09DF0ADF2BDF458
S11310DADAF48DF0480000C9F00FFFADF0BDF4FA60
S11310EAF48B9DF26AF240ADF0DAF48DF248000016
S11310FAECA31300C9F001FFADF0BDF2DAF2F14836
S113110A0000C9F00FFFADF0BDF4FAF48B9DF25A5A
S113111AF2BFADF0DAF48DF24800008F13CF9DF0E0
S113112AD4F061E8EC4A1100C9F001FF8F0CCF9D9D
S113113AF2ADF0BDF4DAF48DF2480000EC69110066
S113114AC9F201FF8F20CF9DF18F29CF9DF08DF138
S113115A6BF09DF0ADF2BDF4DAF48DF0480000C9ED
S113116AF007FFADF0BDF4FAF48B9DF26AF202AD1A
S113117AF0DAF48DF2480000ECA31300C9F001FF81
S113118AADF0BDF2DAF2F1480000C9F007FFADF0A4
S113119ABDF4FAF48B9DF25AF2FDADF0DAF48DF255
S11311AA4800008F13CF9DF0D4F061E8ECD211000F
S11311BAC9F001FF8F0BCF9DF2ADF0BDF4DAF48DC7
S11311CAF2480000ECF11100C9F201FF8F21CF9D12
S11311DAF18F2ACF9DF08DF16BF09DF0ADF2BDF445
S11311EADAF48DF0480000C9F007FFADF0BDF4FA57
S11311FAF48B9DF26AF204ADF0DAF48DF248000041
S113120AECA31300C9F001FFADF0BDF2DAF2F14824
S113121A0000C9F007FFADF0BDF4FAF48B9DF25A51
S113122AF2FBADF0DAF48DF24800008F13CF9DF093
S113123AD4F061E8EC5A1200C9F001FF8F0ACF9D7D
S113124AF2ADF0BDF4DAF48DF2480000EC79120044
S113125AC9F201FF8F22CF9DF18F2BCF9DF08DF123
S113126A6BF09DF0ADF2BDF4DAF48DF0480000C9DC
S113127AF007FFADF0BDF4FAF48B9DF26AF201AD0A
S113128AF0DAF48DF2480000ECA31300C9F001FF70
S113129AADF0BDF2DAF2F1480000C9F007FFADF093
S11312AABDF4FAF48B9DF25AF2FEADF0DAF48DF243
S11312BA4800008F13CF9DF0D4F061E8ECE21200ED
S11312CAC9F001FF8F09CF9DF2ADF0BDF4DAF48DB8
S11312DAF2480000EC011300C9F201FF8F23CF9DED
S11312EAF18F2CCF9DF08DF16BF09DF0ADF2BDF432
S11312FADAF48DF0480000C9F00FFFADF0BDF4FA3E
S113130AF48B9DF26AF210ADF0DAF48DF248000023
S113131AECA31300C9F001FFADF0BDF2DAF2F14813
S113132A0000C9F00FFFADF0BDF4FAF48B9DF25A38
S113133AF2EFADF0DAF48DF24800008F13CF9DF08E
S113134AD4F061E8EC6A1300C9F001FF8F08CF9D5D
S113135AF2ADF0BDF4DAF48DF2480000EC89130022
S113136AC9F201FF8F24CF9DF18F2DCF9DF08DF10E
S113137A6BF09DF0ADF2BDF4DAF48DF0480000C9CB
S113138AF00FFFADF0BDF4FAF48B9DF26AF208ADEA
S113139AF0DAF48DF2480000008F13CF9DF0D4F0F8
S11313AA61F8ECA61800AF1CCFBDF0A6F0ADF0BFF3
S11313BA1CCFBDF044570261E3ECD713008F1BCF57
S11313CA9DF0A4F08DF09F1BCFF6BF1CCF8F07CFE3
S11313DA9DF04C0171FF61E3ECA61800AF16CFBD76
S11313EAF0A6F0ADF0BF16CFBDF044C70061E3EC40
S11313FAA618008F14CF9DF0A4F08DF09F14CF9DF2
S113140AF0CDF100B6F0DAF0F14827CF8F14CF9D72
S113141AF0CDF1008F25CF9DF2DAF04827CF8F1453
S113142ACF9DF18F12CF9DF08DF14BF061E8EC590D
S113143A16008F12CF9DF0CDF100B6F0ADF0041E68
S113144ACF168B9DF18F25CF9DF08DF14BF061E383
S113145AEC5916008F12CF9DF0CDF100B6F0ADF025
S113146A041ECF168B9DF18F01CF9DF08DF14BF0A9
S113147A61E8EC0615008F01CF9DF18F25CF9DF011
S113148A768DF1612E9DF09F01CF8F25CF9DF04A75
S113149AF01061E8ECBA14008F02CF9DF00CFC9DA9
S11314AAF09F02CF8F00CF9DF00CF89DF09F00CFE4
S11314BA8F25CF9DF04AF00861E8ECE014008F0212
S11314CACF9DF00CFE9DF09F02CF8F00CF9DF00CB4
S11314DAFC9DF09F00CF8F25CF9DF04AF00461E870
S11314EAEC0615008F02CF9DF0B4F08DF09F02CF69
S11314FA8F00CF9DF00CFE9DF09F00CF8F12CF9DE1
S113150AF0CDF100B6F0ADF0041ECF168B9DF18F2D
S113151A00CF9DF08DF14BF061E8ECAE15008F0021
S113152ACF9DF18F25CF9DF0768DF1612E9DF09F91
S113153A00CF8F25CF9DF04AF00861E8EC621500D0
S113154A8F02CF9DF00CFC9DF09F02CF8F01CF9D9F
S113155AF00CF09DF09F01CF8F25CF9DF04AF00447
S113156A61E8EC8815008F02CF9DF00CFE9DF09F78
S113157A02CF8F01CF9DF00CF89DF09F01CF8F25EC
S113158ACF9DF04AF00261E8ECAE15008F02CF9DC0
S113159AF0B4F08DF09F02CF8F01CF9DF00CFC9D2B
S11315AAF09F01CF8F12CF9DF0CDF100B6F0ADF0D0
S11315BA041ECF168B9DF18F02CF9DF08DF14BF057
S11315CA61E8EC5616008F02CF9DF18F25CF9DF06E
S11315DA768DF1612E9DF09F02CF8F25CF9DF04A23
S11315EAF00461E8EC0A16008F00CF9DF00CF89D18
S11315FAF09F00CF8F01CF9DF00CF09DF09F01CF9B
S113160A8F25CF9DF04AF00261E8EC3016008F0076
S113161ACF9DF00CFC9DF09F00CF8F01CF9DF00C65
S113162AF89DF09F01CF8F25CF9DF04AF00161E824
S113163AEC5616008F00CF9DF00CFE9DF09F00CF54
S113164A8F01CF9DF00CFC9DF09F01CFF525CF8F24
S113165A14CF9DF0705100BDF28F12CF9DF0CDF1E1
S113166A00A6F0ADF246F061E8EC8E18008F12CFB6
S113167A9DF0CDF100B6F0ADF0041ECF168B9DF1AE
S113168A8F25CF9DF08DF14BF061C8EC8E18008F39
S113169A12CF9DF0CDF100ADF0041ECF168B9DF153
S11316AA8F04CF9DF08DF14BF061E8EC3F17008F6A
S11316BA04CF9DF18F25CF9DF0768DF1612E9DF09B
S11316CA9F04CF8F25CF9DF04AF01061E8ECF31602
S11316DA008F05CF9DF00CFC9DF09F05CF8F03CFA3
S11316EA9DF00CF89DF09F03CF8F25CF9DF04AF013
S11316FA0861E8EC1917008F05CF9DF00CFE9DF0E8
S113170A9F05CF8F03CF9DF00CFC9DF09F03CF8FD5
S113171A25CF9DF04AF00461E8EC3F17008F05CF0E
S113172A9DF0B4F08DF09F05CF8F03CF9DF00CFE92
S113173A9DF09F03CF8F12CF9DF0CDF100ADF00441
S113174A1ECF168B9DF18F03CF9DF08DF14BF06167
S113175AE8ECE517008F03CF9DF18F25CF9DF07636
S113176A8DF1612E9DF09F03CF8F25CF9DF04AF016
S113177A0861E8EC9917008F05CF9DF00CFC9DF0E9
S113178A9F05CF8F04CF9DF00CF09DF09F04CF8F5F
S113179A25CF9DF04AF00461E8ECBF17008F05CF0E
S11317AA9DF00CFE9DF09F05CF8F04CF9DF00CF8A1
S11317BA9DF09F04CF8F25CF9DF04AF00261E8EC9B
S11317CAE517008F05CF9DF0B4F08DF09F05CF8FFC
S11317DA04CF9DF00CFC9DF09F04CF8F12CF9DF097
S11317EACDF100ADF0041ECF168B9DF18F05CF9D70
S11317FAF08DF14BF061E8EC8B18008F05CF9DF169
S113180A8F25CF9DF0768DF1612E9DF09F05CF8FA8
S113181A25CF9DF04AF00461E8EC3F18008F03CF0E
S113182A9DF00CF89DF09F03CF8F04CF9DF00CF030
S113183A9DF09F04CF8F25CF9DF04AF00261E8EC1A
S113184A6518008F03CF9DF00CFC9DF09F03CF8F8A
S113185A04CF9DF00CF89DF09F04CF8F25CF9DF007
S113186A4AF00161E8EC8B18008F03CF9DF00CFE5F
S113187A9DF09F03CF8F04CF9DF00CFC9DF09F0435
S113188ACFF525CF8F14CF9DF04AF00761E3ECA280
S113189A1800F514CFF507CFF6BF16CF8F19CF9DD1
S11318AAF0A4F08DF09F19CF9DF04AF00661E3ECA5
S11318BAC01800F519CF8F1BCF9DF04AF00C61E3D5
S11318CAECE21800C9F064FFADF0BDF2DAF2301FA1
S11318DABE780000FCD00E0061DFC6C4C2C061CF6E
S11318EAC6C4C2C061FC61CFC1C3C5C7C6C4C2C035
S11318FA61FCC9F07700ADF0BDF2DAF2F1480000FC
S113190AC9F07900ADF0BDF2DAF2F1480000FCE466
S113191A0300FC490300FC240A00FCA80A00FCF8A2
S113192A0300C9F07800ADF0BDF2DAF2F148000024
S113193AD72002717BFAFCFC1800E6B800BDF0104F
S113194A02D7FC581900FCEA0000EC501900717A1D
S113195AFAFC1A0E00FCB90700FC1F0800FC530726
S113196A00D76E19CBF8DCFE410061CF34D80036BB
S113197A00CF61DF3600CF3012CF27311E4400007A
S113198ADD0EB161CF11A9BBA5A5A7A761DFEFED54
S113199A61CF3612CF30000061DF302ECF27311EDF
S11319AA440000DD0AB161CFBBA7A761DFEFF16193
S11319BACFFC3B190000300000C1C1C1FC4C190026
S10519CAEFFE2A
S903196E75
